{
  "contractName": "VoteTracker",
  "abi": [
    {
      "anonymous": false,
      "inputs": [
        {
          "indexed": false,
          "internalType": "uint256",
          "name": "add",
          "type": "uint256"
        },
        {
          "indexed": false,
          "internalType": "string",
          "name": "adhaarNumber",
          "type": "string"
        },
        {
          "indexed": false,
          "internalType": "string",
          "name": "email",
          "type": "string"
        }
      ],
      "name": "IdentityCreate",
      "type": "event"
    },
    {
      "anonymous": false,
      "inputs": [
        {
          "indexed": false,
          "internalType": "string",
          "name": "name",
          "type": "string"
        },
        {
          "indexed": false,
          "internalType": "uint256",
          "name": "voteCount",
          "type": "uint256"
        }
      ],
      "name": "PartyCreate",
      "type": "event"
    },
    {
      "anonymous": false,
      "inputs": [
        {
          "indexed": false,
          "internalType": "string",
          "name": "name1",
          "type": "string"
        },
        {
          "indexed": false,
          "internalType": "uint256",
          "name": "voteCount1",
          "type": "uint256"
        }
      ],
      "name": "PartyCreateA",
      "type": "event"
    },
    {
      "anonymous": false,
      "inputs": [
        {
          "indexed": false,
          "internalType": "string",
          "name": "name2",
          "type": "string"
        },
        {
          "indexed": false,
          "internalType": "uint256",
          "name": "voteCount2",
          "type": "uint256"
        }
      ],
      "name": "PartyCreateB",
      "type": "event"
    },
    {
      "anonymous": false,
      "inputs": [
        {
          "indexed": false,
          "internalType": "string",
          "name": "name3",
          "type": "string"
        },
        {
          "indexed": false,
          "internalType": "uint256",
          "name": "voteCount3",
          "type": "uint256"
        }
      ],
      "name": "PartyCreateC",
      "type": "event"
    },
    {
      "anonymous": false,
      "inputs": [
        {
          "indexed": false,
          "internalType": "string",
          "name": "name4",
          "type": "string"
        },
        {
          "indexed": false,
          "internalType": "uint256",
          "name": "voteCount4",
          "type": "uint256"
        }
      ],
      "name": "PartyCreateD",
      "type": "event"
    },
    {
      "anonymous": false,
      "inputs": [
        {
          "indexed": false,
          "internalType": "uint256",
          "name": "voteCount",
          "type": "uint256"
        },
        {
          "indexed": false,
          "internalType": "string",
          "name": "partyName",
          "type": "string"
        },
        {
          "indexed": false,
          "internalType": "string",
          "name": "adhaar",
          "type": "string"
        }
      ],
      "name": "VoteGenerate",
      "type": "event"
    },
    {
      "anonymous": false,
      "inputs": [
        {
          "indexed": false,
          "internalType": "uint256",
          "name": "voteCount1",
          "type": "uint256"
        },
        {
          "indexed": false,
          "internalType": "string",
          "name": "partyName1",
          "type": "string"
        },
        {
          "indexed": false,
          "internalType": "string",
          "name": "adhaarA",
          "type": "string"
        }
      ],
      "name": "VoteGenerateA",
      "type": "event"
    },
    {
      "anonymous": false,
      "inputs": [
        {
          "indexed": false,
          "internalType": "uint256",
          "name": "voteCount2",
          "type": "uint256"
        },
        {
          "indexed": false,
          "internalType": "string",
          "name": "partyName2",
          "type": "string"
        },
        {
          "indexed": false,
          "internalType": "string",
          "name": "adhaarB",
          "type": "string"
        }
      ],
      "name": "VoteGenerateB",
      "type": "event"
    },
    {
      "anonymous": false,
      "inputs": [
        {
          "indexed": false,
          "internalType": "uint256",
          "name": "voteCount3",
          "type": "uint256"
        },
        {
          "indexed": false,
          "internalType": "string",
          "name": "partyName3",
          "type": "string"
        },
        {
          "indexed": false,
          "internalType": "string",
          "name": "adhaarC",
          "type": "string"
        }
      ],
      "name": "VoteGenerateC",
      "type": "event"
    },
    {
      "anonymous": false,
      "inputs": [
        {
          "indexed": false,
          "internalType": "uint256",
          "name": "voteCount4",
          "type": "uint256"
        },
        {
          "indexed": false,
          "internalType": "string",
          "name": "partyName4",
          "type": "string"
        },
        {
          "indexed": false,
          "internalType": "string",
          "name": "adhaarD",
          "type": "string"
        }
      ],
      "name": "VoteGenerateD",
      "type": "event"
    },
    {
      "constant": true,
      "inputs": [
        {
          "internalType": "uint256",
          "name": "",
          "type": "uint256"
        }
      ],
      "name": "IdentityStore",
      "outputs": [
        {
          "internalType": "uint256",
          "name": "add",
          "type": "uint256"
        },
        {
          "internalType": "string",
          "name": "adhaarNumber",
          "type": "string"
        },
        {
          "internalType": "string",
          "name": "email",
          "type": "string"
        }
      ],
      "payable": false,
      "stateMutability": "view",
      "type": "function"
    },
    {
      "constant": true,
      "inputs": [
        {
          "internalType": "uint256",
          "name": "",
          "type": "uint256"
        }
      ],
      "name": "PartyStore",
      "outputs": [
        {
          "internalType": "string",
          "name": "name",
          "type": "string"
        },
        {
          "internalType": "uint256",
          "name": "voteCount",
          "type": "uint256"
        }
      ],
      "payable": false,
      "stateMutability": "view",
      "type": "function"
    },
    {
      "constant": true,
      "inputs": [
        {
          "internalType": "uint256",
          "name": "",
          "type": "uint256"
        }
      ],
      "name": "PartyStore1",
      "outputs": [
        {
          "internalType": "string",
          "name": "name1",
          "type": "string"
        },
        {
          "internalType": "uint256",
          "name": "voteCount1",
          "type": "uint256"
        }
      ],
      "payable": false,
      "stateMutability": "view",
      "type": "function"
    },
    {
      "constant": true,
      "inputs": [
        {
          "internalType": "uint256",
          "name": "",
          "type": "uint256"
        }
      ],
      "name": "PartyStore2",
      "outputs": [
        {
          "internalType": "string",
          "name": "name2",
          "type": "string"
        },
        {
          "internalType": "uint256",
          "name": "voteCount2",
          "type": "uint256"
        }
      ],
      "payable": false,
      "stateMutability": "view",
      "type": "function"
    },
    {
      "constant": true,
      "inputs": [
        {
          "internalType": "uint256",
          "name": "",
          "type": "uint256"
        }
      ],
      "name": "PartyStore3",
      "outputs": [
        {
          "internalType": "string",
          "name": "name3",
          "type": "string"
        },
        {
          "internalType": "uint256",
          "name": "voteCount3",
          "type": "uint256"
        }
      ],
      "payable": false,
      "stateMutability": "view",
      "type": "function"
    },
    {
      "constant": true,
      "inputs": [
        {
          "internalType": "uint256",
          "name": "",
          "type": "uint256"
        }
      ],
      "name": "PartyStore4",
      "outputs": [
        {
          "internalType": "string",
          "name": "name4",
          "type": "string"
        },
        {
          "internalType": "uint256",
          "name": "voteCount4",
          "type": "uint256"
        }
      ],
      "payable": false,
      "stateMutability": "view",
      "type": "function"
    },
    {
      "constant": true,
      "inputs": [
        {
          "internalType": "uint256",
          "name": "",
          "type": "uint256"
        }
      ],
      "name": "VoteStore",
      "outputs": [
        {
          "internalType": "uint256",
          "name": "id",
          "type": "uint256"
        },
        {
          "internalType": "string",
          "name": "PartyName",
          "type": "string"
        },
        {
          "internalType": "string",
          "name": "adhaar",
          "type": "string"
        }
      ],
      "payable": false,
      "stateMutability": "view",
      "type": "function"
    },
    {
      "constant": true,
      "inputs": [
        {
          "internalType": "uint256",
          "name": "",
          "type": "uint256"
        }
      ],
      "name": "VoteStore1",
      "outputs": [
        {
          "internalType": "uint256",
          "name": "id1",
          "type": "uint256"
        },
        {
          "internalType": "string",
          "name": "PartyName1",
          "type": "string"
        },
        {
          "internalType": "string",
          "name": "adhaarA",
          "type": "string"
        }
      ],
      "payable": false,
      "stateMutability": "view",
      "type": "function"
    },
    {
      "constant": true,
      "inputs": [
        {
          "internalType": "uint256",
          "name": "",
          "type": "uint256"
        }
      ],
      "name": "VoteStore2",
      "outputs": [
        {
          "internalType": "uint256",
          "name": "id2",
          "type": "uint256"
        },
        {
          "internalType": "string",
          "name": "PartyName3",
          "type": "string"
        },
        {
          "internalType": "string",
          "name": "adhaarB",
          "type": "string"
        }
      ],
      "payable": false,
      "stateMutability": "view",
      "type": "function"
    },
    {
      "constant": true,
      "inputs": [
        {
          "internalType": "uint256",
          "name": "",
          "type": "uint256"
        }
      ],
      "name": "VoteStore3",
      "outputs": [
        {
          "internalType": "uint256",
          "name": "id3",
          "type": "uint256"
        },
        {
          "internalType": "string",
          "name": "PartyName3",
          "type": "string"
        },
        {
          "internalType": "string",
          "name": "adhaarC",
          "type": "string"
        }
      ],
      "payable": false,
      "stateMutability": "view",
      "type": "function"
    },
    {
      "constant": true,
      "inputs": [
        {
          "internalType": "uint256",
          "name": "",
          "type": "uint256"
        }
      ],
      "name": "VoteStore4",
      "outputs": [
        {
          "internalType": "uint256",
          "name": "id4",
          "type": "uint256"
        },
        {
          "internalType": "string",
          "name": "PartyName4",
          "type": "string"
        },
        {
          "internalType": "string",
          "name": "adhaarD",
          "type": "string"
        }
      ],
      "payable": false,
      "stateMutability": "view",
      "type": "function"
    },
    {
      "constant": true,
      "inputs": [],
      "name": "identityCount",
      "outputs": [
        {
          "internalType": "uint256",
          "name": "",
          "type": "uint256"
        }
      ],
      "payable": false,
      "stateMutability": "view",
      "type": "function"
    },
    {
      "constant": true,
      "inputs": [],
      "name": "partyCount",
      "outputs": [
        {
          "internalType": "uint256",
          "name": "",
          "type": "uint256"
        }
      ],
      "payable": false,
      "stateMutability": "view",
      "type": "function"
    },
    {
      "constant": true,
      "inputs": [],
      "name": "partyCount1",
      "outputs": [
        {
          "internalType": "uint256",
          "name": "",
          "type": "uint256"
        }
      ],
      "payable": false,
      "stateMutability": "view",
      "type": "function"
    },
    {
      "constant": true,
      "inputs": [],
      "name": "partyCount2",
      "outputs": [
        {
          "internalType": "uint256",
          "name": "",
          "type": "uint256"
        }
      ],
      "payable": false,
      "stateMutability": "view",
      "type": "function"
    },
    {
      "constant": true,
      "inputs": [],
      "name": "partyCount3",
      "outputs": [
        {
          "internalType": "uint256",
          "name": "",
          "type": "uint256"
        }
      ],
      "payable": false,
      "stateMutability": "view",
      "type": "function"
    },
    {
      "constant": true,
      "inputs": [],
      "name": "partyCount4",
      "outputs": [
        {
          "internalType": "uint256",
          "name": "",
          "type": "uint256"
        }
      ],
      "payable": false,
      "stateMutability": "view",
      "type": "function"
    },
    {
      "constant": true,
      "inputs": [],
      "name": "secret",
      "outputs": [
        {
          "internalType": "string",
          "name": "",
          "type": "string"
        }
      ],
      "payable": false,
      "stateMutability": "view",
      "type": "function"
    },
    {
      "constant": true,
      "inputs": [],
      "name": "voterCount",
      "outputs": [
        {
          "internalType": "uint256",
          "name": "",
          "type": "uint256"
        }
      ],
      "payable": false,
      "stateMutability": "view",
      "type": "function"
    },
    {
      "constant": true,
      "inputs": [],
      "name": "voterCount1",
      "outputs": [
        {
          "internalType": "uint256",
          "name": "",
          "type": "uint256"
        }
      ],
      "payable": false,
      "stateMutability": "view",
      "type": "function"
    },
    {
      "constant": true,
      "inputs": [],
      "name": "voterCount2",
      "outputs": [
        {
          "internalType": "uint256",
          "name": "",
          "type": "uint256"
        }
      ],
      "payable": false,
      "stateMutability": "view",
      "type": "function"
    },
    {
      "constant": true,
      "inputs": [],
      "name": "voterCount3",
      "outputs": [
        {
          "internalType": "uint256",
          "name": "",
          "type": "uint256"
        }
      ],
      "payable": false,
      "stateMutability": "view",
      "type": "function"
    },
    {
      "constant": true,
      "inputs": [],
      "name": "voterCount4",
      "outputs": [
        {
          "internalType": "uint256",
          "name": "",
          "type": "uint256"
        }
      ],
      "payable": false,
      "stateMutability": "view",
      "type": "function"
    },
    {
      "constant": false,
      "inputs": [
        {
          "internalType": "string",
          "name": "_adhaarNumber",
          "type": "string"
        },
        {
          "internalType": "string",
          "name": "_email",
          "type": "string"
        }
      ],
      "name": "registerUser",
      "outputs": [
        {
          "internalType": "uint256",
          "name": "",
          "type": "uint256"
        }
      ],
      "payable": false,
      "stateMutability": "nonpayable",
      "type": "function"
    },
    {
      "constant": false,
      "inputs": [],
      "name": "getidcount",
      "outputs": [
        {
          "internalType": "uint256",
          "name": "",
          "type": "uint256"
        }
      ],
      "payable": false,
      "stateMutability": "nonpayable",
      "type": "function"
    },
    {
      "constant": false,
      "inputs": [
        {
          "internalType": "string",
          "name": "_partyName",
          "type": "string"
        },
        {
          "internalType": "string",
          "name": "_adhaar",
          "type": "string"
        }
      ],
      "name": "generateVote",
      "outputs": [
        {
          "internalType": "uint256",
          "name": "",
          "type": "uint256"
        }
      ],
      "payable": false,
      "stateMutability": "nonpayable",
      "type": "function"
    },
    {
      "constant": false,
      "inputs": [
        {
          "internalType": "string",
          "name": "_partyName1",
          "type": "string"
        },
        {
          "internalType": "string",
          "name": "_adhaarA",
          "type": "string"
        }
      ],
      "name": "generateVoteA",
      "outputs": [
        {
          "internalType": "uint256",
          "name": "",
          "type": "uint256"
        }
      ],
      "payable": false,
      "stateMutability": "nonpayable",
      "type": "function"
    },
    {
      "constant": false,
      "inputs": [
        {
          "internalType": "string",
          "name": "_partyName2",
          "type": "string"
        },
        {
          "internalType": "string",
          "name": "_adhaarB",
          "type": "string"
        }
      ],
      "name": "generateVoteB",
      "outputs": [
        {
          "internalType": "uint256",
          "name": "",
          "type": "uint256"
        }
      ],
      "payable": false,
      "stateMutability": "nonpayable",
      "type": "function"
    },
    {
      "constant": false,
      "inputs": [
        {
          "internalType": "string",
          "name": "_partyName3",
          "type": "string"
        },
        {
          "internalType": "string",
          "name": "_adhaarC",
          "type": "string"
        }
      ],
      "name": "generateVoteC",
      "outputs": [
        {
          "internalType": "uint256",
          "name": "",
          "type": "uint256"
        }
      ],
      "payable": false,
      "stateMutability": "nonpayable",
      "type": "function"
    },
    {
      "constant": false,
      "inputs": [
        {
          "internalType": "string",
          "name": "_partyName4",
          "type": "string"
        },
        {
          "internalType": "string",
          "name": "_adhaarD",
          "type": "string"
        }
      ],
      "name": "generateVoteD",
      "outputs": [
        {
          "internalType": "uint256",
          "name": "",
          "type": "uint256"
        }
      ],
      "payable": false,
      "stateMutability": "nonpayable",
      "type": "function"
    },
    {
      "constant": false,
      "inputs": [
        {
          "internalType": "string",
          "name": "_name",
          "type": "string"
        }
      ],
      "name": "createParty",
      "outputs": [
        {
          "internalType": "uint256",
          "name": "",
          "type": "uint256"
        }
      ],
      "payable": false,
      "stateMutability": "nonpayable",
      "type": "function"
    },
    {
      "constant": false,
      "inputs": [
        {
          "internalType": "string",
          "name": "_name1",
          "type": "string"
        }
      ],
      "name": "createPartyA",
      "outputs": [
        {
          "internalType": "uint256",
          "name": "",
          "type": "uint256"
        }
      ],
      "payable": false,
      "stateMutability": "nonpayable",
      "type": "function"
    },
    {
      "constant": false,
      "inputs": [
        {
          "internalType": "string",
          "name": "_name2",
          "type": "string"
        }
      ],
      "name": "createPartyB",
      "outputs": [
        {
          "internalType": "uint256",
          "name": "",
          "type": "uint256"
        }
      ],
      "payable": false,
      "stateMutability": "nonpayable",
      "type": "function"
    },
    {
      "constant": false,
      "inputs": [
        {
          "internalType": "string",
          "name": "_name3",
          "type": "string"
        }
      ],
      "name": "createPartyC",
      "outputs": [
        {
          "internalType": "uint256",
          "name": "",
          "type": "uint256"
        }
      ],
      "payable": false,
      "stateMutability": "nonpayable",
      "type": "function"
    },
    {
      "constant": false,
      "inputs": [
        {
          "internalType": "string",
          "name": "_name4",
          "type": "string"
        }
      ],
      "name": "createPartyD",
      "outputs": [
        {
          "internalType": "uint256",
          "name": "",
          "type": "uint256"
        }
      ],
      "payable": false,
      "stateMutability": "nonpayable",
      "type": "function"
    },
    {
      "constant": false,
      "inputs": [],
      "name": "getAdminKey",
      "outputs": [
        {
          "internalType": "string",
          "name": "",
          "type": "string"
        }
      ],
      "payable": false,
      "stateMutability": "nonpayable",
      "type": "function"
    },
    {
      "constant": false,
      "inputs": [
        {
          "internalType": "string",
          "name": "_partyNamer",
          "type": "string"
        }
      ],
      "name": "getParty",
      "outputs": [
        {
          "internalType": "uint256",
          "name": "",
          "type": "uint256"
        }
      ],
      "payable": false,
      "stateMutability": "nonpayable",
      "type": "function"
    },
    {
      "constant": false,
      "inputs": [
        {
          "internalType": "string",
          "name": "_partyNamerA",
          "type": "string"
        }
      ],
      "name": "getPartyA",
      "outputs": [
        {
          "internalType": "uint256",
          "name": "",
          "type": "uint256"
        }
      ],
      "payable": false,
      "stateMutability": "nonpayable",
      "type": "function"
    },
    {
      "constant": false,
      "inputs": [
        {
          "internalType": "string",
          "name": "_partyNamerB",
          "type": "string"
        }
      ],
      "name": "getPartyB",
      "outputs": [
        {
          "internalType": "uint256",
          "name": "",
          "type": "uint256"
        }
      ],
      "payable": false,
      "stateMutability": "nonpayable",
      "type": "function"
    },
    {
      "constant": false,
      "inputs": [
        {
          "internalType": "string",
          "name": "_partyNamerC",
          "type": "string"
        }
      ],
      "name": "getPartyC",
      "outputs": [
        {
          "internalType": "uint256",
          "name": "",
          "type": "uint256"
        }
      ],
      "payable": false,
      "stateMutability": "nonpayable",
      "type": "function"
    },
    {
      "constant": false,
      "inputs": [
        {
          "internalType": "string",
          "name": "_partyNamerD",
          "type": "string"
        }
      ],
      "name": "getPartyD",
      "outputs": [
        {
          "internalType": "uint256",
          "name": "",
          "type": "uint256"
        }
      ],
      "payable": false,
      "stateMutability": "nonpayable",
      "type": "function"
    },
    {
      "constant": false,
      "inputs": [
        {
          "internalType": "string",
          "name": "_adm",
          "type": "string"
        }
      ],
      "name": "getemail",
      "outputs": [
        {
          "internalType": "string",
          "name": "",
          "type": "string"
        }
      ],
      "payable": false,
      "stateMutability": "nonpayable",
      "type": "function"
    },
    {
      "constant": false,
      "inputs": [],
      "name": "getPartyCount",
      "outputs": [
        {
          "internalType": "uint256",
          "name": "",
          "type": "uint256"
        }
      ],
      "payable": false,
      "stateMutability": "nonpayable",
      "type": "function"
    },
    {
      "constant": false,
      "inputs": [],
      "name": "getPartyCountA",
      "outputs": [
        {
          "internalType": "uint256",
          "name": "",
          "type": "uint256"
        }
      ],
      "payable": false,
      "stateMutability": "nonpayable",
      "type": "function"
    },
    {
      "constant": false,
      "inputs": [],
      "name": "getPartyCountB",
      "outputs": [
        {
          "internalType": "uint256",
          "name": "",
          "type": "uint256"
        }
      ],
      "payable": false,
      "stateMutability": "nonpayable",
      "type": "function"
    },
    {
      "constant": false,
      "inputs": [],
      "name": "getPartyCountC",
      "outputs": [
        {
          "internalType": "uint256",
          "name": "",
          "type": "uint256"
        }
      ],
      "payable": false,
      "stateMutability": "nonpayable",
      "type": "function"
    },
    {
      "constant": false,
      "inputs": [],
      "name": "getPartyCountD",
      "outputs": [
        {
          "internalType": "uint256",
          "name": "",
          "type": "uint256"
        }
      ],
      "payable": false,
      "stateMutability": "nonpayable",
      "type": "function"
    },
    {
      "constant": false,
      "inputs": [
        {
          "internalType": "uint256",
          "name": "_id",
          "type": "uint256"
        }
      ],
      "name": "getNames",
      "outputs": [
        {
          "internalType": "uint256",
          "name": "",
          "type": "uint256"
        },
        {
          "internalType": "string",
          "name": "",
          "type": "string"
        }
      ],
      "payable": false,
      "stateMutability": "nonpayable",
      "type": "function"
    },
    {
      "constant": false,
      "inputs": [
        {
          "internalType": "uint256",
          "name": "_id1",
          "type": "uint256"
        }
      ],
      "name": "getNamesA",
      "outputs": [
        {
          "internalType": "uint256",
          "name": "",
          "type": "uint256"
        },
        {
          "internalType": "string",
          "name": "",
          "type": "string"
        }
      ],
      "payable": false,
      "stateMutability": "nonpayable",
      "type": "function"
    },
    {
      "constant": false,
      "inputs": [
        {
          "internalType": "uint256",
          "name": "_id2",
          "type": "uint256"
        }
      ],
      "name": "getNamesB",
      "outputs": [
        {
          "internalType": "uint256",
          "name": "",
          "type": "uint256"
        },
        {
          "internalType": "string",
          "name": "",
          "type": "string"
        }
      ],
      "payable": false,
      "stateMutability": "nonpayable",
      "type": "function"
    },
    {
      "constant": false,
      "inputs": [
        {
          "internalType": "uint256",
          "name": "_id3",
          "type": "uint256"
        }
      ],
      "name": "getNamesC",
      "outputs": [
        {
          "internalType": "uint256",
          "name": "",
          "type": "uint256"
        },
        {
          "internalType": "string",
          "name": "",
          "type": "string"
        }
      ],
      "payable": false,
      "stateMutability": "nonpayable",
      "type": "function"
    },
    {
      "constant": false,
      "inputs": [
        {
          "internalType": "uint256",
          "name": "_id4",
          "type": "uint256"
        }
      ],
      "name": "getNamesD",
      "outputs": [
        {
          "internalType": "uint256",
          "name": "",
          "type": "uint256"
        },
        {
          "internalType": "string",
          "name": "",
          "type": "string"
        }
      ],
      "payable": false,
      "stateMutability": "nonpayable",
      "type": "function"
    }
  ],
  "bytecode": "0x60806040526040518060400160405280600681526020017f313233343536000000000000000000000000000000000000000000000000000081525060009080519060200190620000519291906200009d565b5060006002556000600455600060065560006008556000600a556000600c556000600e5560006010556000601255600060145560006016553480156200009657600080fd5b506200014c565b828054600181600116156101000203166002900490600052602060002090601f016020900481019282601f10620000e057805160ff191683800117855562000111565b8280016001018555821562000111579182015b8281111562000110578251825591602001919060010190620000f3565b5b50905062000120919062000124565b5090565b6200014991905b80821115620001455760008160009055506001016200012b565b5090565b90565b6142f6806200015c6000396000f3fe608060405234801561001057600080fd5b506004361061030b5760003560e01c80637211dde41161019d578063b5adf581116100e9578063d77177ab116100a2578063f48af4a61161007c578063f48af4a614610b05578063f8a8f86e14610b23578063fa30cf8814610b54578063fa8389c514610b725761030b565b8063d77177ab14610a75578063d77b731714610aa5578063eb786fb514610ad55761030b565b8063b5adf58114610963578063b5d03e3814610993578063b8df43ae146109c4578063c262e899146109f6578063d1efd30d14610a27578063d2741f5f14610a455761030b565b8063903c3561116101565780639eb8e725116101305780639eb8e725146108c5578063b115398d146108e3578063b1d2cfe814610914578063b45fd782146109325761030b565b8063903c356114610846578063930b38a5146108645780639b379100146108945761030b565b80637211dde414610746578063773f5101146107765780637901095e146107a85780637bc36cbb146107d857806382cbd6101461080a5780638662d0c8146108285761030b565b80632da4ace31161025c57806342169e48116102155780635718e17b116101ef5780635718e17b146106a957806360b960e5146106da57806365481132146106f85780636f03a897146107165761030b565b806342169e481461064f5780634577c3351461066d5780634834088b1461068b5761030b565b80632da4ace31461054f57806330e571d414610580578063311f2dd4146105b1578063338d6d1a146105e1578063339d74a3146105ff57806338678ba5146106315761030b565b80631833ae7c116102c9578063232245f6116102a3578063232245f61461049f57806328de9722146104d15780632b214280146104ef5780632da4a9931461051f5761030b565b80631833ae7c14610420578063191518471461043e5780631d2e4afd1461046f5761030b565b80624094db146103105780630ece719c146103405780631158b39f1461037257806314288c87146103a257806316bf188a146103d257806317a5b6c014610402575b600080fd5b61032a60048036036103259190810190613e7b565b610b90565b60405161033791906140cd565b60405180910390f35b61035a60048036036103559190810190613f28565b610c4a565b6040516103699392919061415d565b60405180910390f35b61038c60048036036103879190810190613e7b565b610da4565b60405161039991906140cd565b60405180910390f35b6103bc60048036036103b79190810190613ebc565b610edb565b6040516103c991906140cd565b60405180910390f35b6103ec60048036036103e79190810190613e7b565b611004565b6040516103f991906140cd565b60405180910390f35b61040a6110be565b60405161041791906140cd565b60405180910390f35b6104286110c8565b60405161043591906140cd565b60405180910390f35b61045860048036036104539190810190613f28565b6110d2565b6040516104669291906140e8565b60405180910390f35b61048960048036036104849190810190613ebc565b6111b7565b60405161049691906140cd565b60405180910390f35b6104b960048036036104b49190810190613f28565b611299565b6040516104c89392919061415d565b60405180910390f35b6104d96113f3565b6040516104e691906140cd565b60405180910390f35b61050960048036036105049190810190613e7b565b6113f9565b60405161051691906140cd565b60405180910390f35b61053960048036036105349190810190613e7b565b6114b3565b60405161054691906140cd565b60405180910390f35b61056960048036036105649190810190613f28565b6115ea565b6040516105779291906140e8565b60405180910390f35b61059a60048036036105959190810190613f28565b6116cf565b6040516105a89291906140e8565b60405180910390f35b6105cb60048036036105c69190810190613e7b565b6117b4565b6040516105d891906140cd565b60405180910390f35b6105e961186e565b6040516105f691906140cd565b60405180910390f35b61061960048036036106149190810190613f28565b611874565b6040516106289392919061415d565b60405180910390f35b6106396119ce565b60405161064691906140cd565b60405180910390f35b6106576119d4565b60405161066491906140cd565b60405180910390f35b6106756119da565b60405161068291906140cd565b60405180910390f35b6106936119e4565b6040516106a0919061404b565b60405180910390f35b6106c360048036036106be9190810190613f28565b611a86565b6040516106d19291906140e8565b60405180910390f35b6106e2611b6b565b6040516106ef91906140cd565b60405180910390f35b610700611b75565b60405161070d91906140cd565b60405180910390f35b610730600480360361072b9190810190613e7b565b611b7b565b60405161073d91906140cd565b60405180910390f35b610760600480360361075b9190810190613e7b565b611c35565b60405161076d919061404b565b60405180910390f35b610790600480360361078b9190810190613f28565b611e1b565b60405161079f9392919061415d565b60405180910390f35b6107c260048036036107bd9190810190613ebc565b611f75565b6040516107cf91906140cd565b60405180910390f35b6107f260048036036107ed9190810190613f28565b61209e565b6040516108019392919061415d565b60405180910390f35b6108126121f8565b60405161081f91906140cd565b60405180910390f35b6108306121fe565b60405161083d91906140cd565b60405180910390f35b61084e612208565b60405161085b91906140cd565b60405180910390f35b61087e60048036036108799190810190613ebc565b61220e565b60405161088b91906140cd565b60405180910390f35b6108ae60048036036108a99190810190613f28565b612337565b6040516108bc9291906140e8565b60405180910390f35b6108cd61241c565b6040516108da91906140cd565b60405180910390f35b6108fd60048036036108f89190810190613f28565b612422565b60405161090b92919061409d565b60405180910390f35b61091c6124de565b60405161092991906140cd565b60405180910390f35b61094c60048036036109479190810190613f28565b6124e4565b60405161095a92919061409d565b60405180910390f35b61097d60048036036109789190810190613ebc565b6125a0565b60405161098a91906140cd565b60405180910390f35b6109ad60048036036109a89190810190613f28565b6126c9565b6040516109bb92919061409d565b60405180910390f35b6109de60048036036109d99190810190613f28565b612785565b6040516109ed9392919061415d565b60405180910390f35b610a106004803603610a0b9190810190613f28565b6128df565b604051610a1e92919061409d565b60405180910390f35b610a2f61299b565b604051610a3c9190614029565b60405180910390f35b610a5f6004803603610a5a9190810190613e7b565b612a39565b604051610a6c91906140cd565b60405180910390f35b610a8f6004803603610a8a9190810190613e7b565b612b70565b604051610a9c91906140cd565b60405180910390f35b610abf6004803603610aba9190810190613ebc565b612ca7565b604051610acc91906140cd565b60405180910390f35b610aef6004803603610aea9190810190613e7b565b612dd0565b604051610afc91906140cd565b60405180910390f35b610b0d612f07565b604051610b1a91906140cd565b60405180910390f35b610b3d6004803603610b389190810190613f28565b612f0d565b604051610b4b92919061409d565b60405180910390f35b610b5c612fc9565b604051610b6991906140cd565b60405180910390f35b610b7a612fd3565b604051610b8791906140cd565b60405180910390f35b6000610b9b82612fd9565b610ba457600080fd5b600c6000815480929190600101919050555060405180604001604052808381526020016000815250600b6000600c5481526020019081526020016000206000820151816000019080519060200190610bfd929190613d6d565b50602082015181600101559050507f2b0eeee174d41d45c8b5c15a69654052c8d29819fe75dcf785bb428e343f0655826000604051610c3d92919061406d565b60405180910390a1919050565b6005602052806000526040600020600091509050806000015490806001018054600181600116156101000203166002900480601f016020809104026020016040519081016040528092919081815260200182805460018160011615610100020316600290048015610cfc5780601f10610cd157610100808354040283529160200191610cfc565b820191906000526020600020905b815481529060010190602001808311610cdf57829003601f168201915b505050505090806002018054600181600116156101000203166002900480601f016020809104026020016040519081016040528092919081815260200182805460018160011615610100020316600290048015610d9a5780601f10610d6f57610100808354040283529160200191610d9a565b820191906000526020600020905b815481529060010190602001808311610d7d57829003601f168201915b5050505050905083565b600080600190505b600c548111610ed4576060600b60008381526020019081526020016000206000018054600181600116156101000203166002900480601f016020809104026020016040519081016040528092919081815260200182805460018160011615610100020316600290048015610e615780601f10610e3657610100808354040283529160200191610e61565b820191906000526020600020905b815481529060010190602001808311610e4457829003601f168201915b5050505050905083604051602001610e799190614012565b6040516020818303038152906040528051906020012081604051602001610ea09190614012565b604051602081830303815290604052805190602001201415610ec6578192505050610ed6565b508080600101915050610dac565b505b919050565b6000610ee682613115565b610eef57600080fd5b610ef883613251565b15610f0257600080fd5b600a600081548092919060010191905055506040518060600160405280600a5481526020018481526020018381525060096000600a548152602001908152602001600020600082015181600001556020820151816001019080519060200190610f6c929190613d6d565b506040820151816002019080519060200190610f89929190613d6d565b509050506000610f9884612dd0565b905060136000828152602001908152602001600020600101600081548092919060010191905055507f832bdc336d1a830c32d80c06bad99fc5739b39bb2c4d3fc754103c258d0a7ac8600a548585604051610ff593929190614118565b60405180910390a15092915050565b600061100f8261338d565b61101857600080fd5b601260008154809291906001019190505550604051806040016040528083815260200160008152506011600060125481526020019081526020016000206000820151816000019080519060200190611071929190613d6d565b50602082015181600101559050507f33b49d77cd1afa78a0a09fdc577ae2746af2d494d8426dcc1e0bf7c3fffd1a348260006040516110b192919061406d565b60405180910390a1919050565b6000600e54905090565b6000601454905090565b60006060600e548311156110e557600080fd5b600d600084815260200190815260200160002060010154600d6000858152602001908152602001600020600001808054600181600116156101000203166002900480601f0160208091040260200160405190810160405280929190818152602001828054600181600116156101000203166002900480156111a75780601f1061117c576101008083540402835291602001916111a7565b820191906000526020600020905b81548152906001019060200180831161118a57829003601f168201915b5050505050905091509150915091565b60006111c2836134c9565b6111cb57600080fd5b6016600081548092919060010191905055506040518060600160405280601654815260200184815260200183815250601560006016548152602001908152602001600020600082015181600001556020820151816001019080519060200190611235929190613d6d565b506040820151816002019080519060200190611252929190613d6d565b509050507f7b9aa8ea81a1b5dca4315f336e401f7ce757bfc733b0562bb2106021f823b37b601654848460405161128b93929190614118565b60405180910390a192915050565b6009602052806000526040600020600091509050806000015490806001018054600181600116156101000203166002900480601f01602080910402602001604051908101604052809291908181526020018280546001816001161561010002031660029004801561134b5780601f106113205761010080835404028352916020019161134b565b820191906000526020600020905b81548152906001019060200180831161132e57829003601f168201915b505050505090806002018054600181600116156101000203166002900480601f0160208091040260200160405190810160405280929190818152602001828054600181600116156101000203166002900480156113e95780601f106113be576101008083540402835291602001916113e9565b820191906000526020600020905b8154815290600101906020018083116113cc57829003601f168201915b5050505050905083565b600a5481565b600061140482613605565b61140d57600080fd5b60106000815480929190600101919050555060405180604001604052808381526020016000815250600f600060105481526020019081526020016000206000820151816000019080519060200190611466929190613d6d565b50602082015181600101559050507f1264b85517d0d8cdb467947d86682dbf8ad714c352d93e6a60d965399f70818b8260006040516114a692919061406d565b60405180910390a1919050565b600080600190505b600e5481116115e3576060600d60008381526020019081526020016000206000018054600181600116156101000203166002900480601f0160208091040260200160405190810160405280929190818152602001828054600181600116156101000203166002900480156115705780601f1061154557610100808354040283529160200191611570565b820191906000526020600020905b81548152906001019060200180831161155357829003601f168201915b50505050509050836040516020016115889190614012565b60405160208183030381529060405280519060200120816040516020016115af9190614012565b6040516020818303038152906040528051906020012014156115d55781925050506115e5565b5080806001019150506114bb565b505b919050565b600060606014548311156115fd57600080fd5b601360008481526020019081526020016000206001015460136000858152602001908152602001600020600001808054600181600116156101000203166002900480601f0160208091040260200160405190810160405280929190818152602001828054600181600116156101000203166002900480156116bf5780601f10611694576101008083540402835291602001916116bf565b820191906000526020600020905b8154815290600101906020018083116116a257829003601f168201915b5050505050905091509150915091565b600060606012548311156116e257600080fd5b601160008481526020019081526020016000206001015460116000858152602001908152602001600020600001808054600181600116156101000203166002900480601f0160208091040260200160405190810160405280929190818152602001828054600181600116156101000203166002900480156117a45780601f10611779576101008083540402835291602001916117a4565b820191906000526020600020905b81548152906001019060200180831161178757829003601f168201915b5050505050905091509150915091565b60006117bf82613251565b6117c857600080fd5b601460008154809291906001019190505550604051806040016040528083815260200160008152506013600060145481526020019081526020016000206000820151816000019080519060200190611821929190613d6d565b50602082015181600101559050507fa205b1371a2b1782d1c6923601221977db596a454d82a6d23bf365efa680321382600060405161186192919061406d565b60405180910390a1919050565b60145481565b6001602052806000526040600020600091509050806000015490806001018054600181600116156101000203166002900480601f0160208091040260200160405190810160405280929190818152602001828054600181600116156101000203166002900480156119265780601f106118fb57610100808354040283529160200191611926565b820191906000526020600020905b81548152906001019060200180831161190957829003601f168201915b505050505090806002018054600181600116156101000203166002900480601f0160208091040260200160405190810160405280929190818152602001828054600181600116156101000203166002900480156119c45780601f10611999576101008083540402835291602001916119c4565b820191906000526020600020905b8154815290600101906020018083116119a757829003601f168201915b5050505050905083565b60165481565b60025481565b6000601654905090565b606060008054600181600116156101000203166002900480601f016020809104026020016040519081016040528092919081815260200182805460018160011615610100020316600290048015611a7c5780601f10611a5157610100808354040283529160200191611a7c565b820191906000526020600020905b815481529060010190602001808311611a5f57829003601f168201915b5050505050905090565b60006060600c54831115611a9957600080fd5b600b600084815260200190815260200160002060010154600b6000858152602001908152602001600020600001808054600181600116156101000203166002900480601f016020809104026020016040519081016040528092919081815260200182805460018160011615610100020316600290048015611b5b5780601f10611b3057610100808354040283529160200191611b5b565b820191906000526020600020905b815481529060010190602001808311611b3e57829003601f168201915b5050505050905091509150915091565b6000600c54905090565b600e5481565b6000611b8682613741565b611b8f57600080fd5b600e6000815480929190600101919050555060405180604001604052808381526020016000815250600d6000600e5481526020019081526020016000206000820151816000019080519060200190611be8929190613d6d565b50602082015181600101559050507fdb3d572e3beb2a6dfe951703f381114522b62d5f826fc7d1c94c37eead12b4e8826000604051611c2892919061406d565b60405180910390a1919050565b60606000600190505b6016548111611e14576060601560008381526020019081526020016000206001018054600181600116156101000203166002900480601f016020809104026020016040519081016040528092919081815260200182805460018160011615610100020316600290048015611cf35780601f10611cc857610100808354040283529160200191611cf3565b820191906000526020600020905b815481529060010190602001808311611cd657829003601f168201915b5050505050905083604051602001611d0b9190614012565b6040516020818303038152906040528051906020012081604051602001611d329190614012565b604051602081830303815290604052805190602001201415611e0657601560008381526020019081526020016000206002018054600181600116156101000203166002900480601f016020809104026020016040519081016040528092919081815260200182805460018160011615610100020316600290048015611df85780601f10611dcd57610100808354040283529160200191611df8565b820191906000526020600020905b815481529060010190602001808311611ddb57829003601f168201915b505050505092505050611e16565b508080600101915050611c3e565b505b919050565b6003602052806000526040600020600091509050806000015490806001018054600181600116156101000203166002900480601f016020809104026020016040519081016040528092919081815260200182805460018160011615610100020316600290048015611ecd5780601f10611ea257610100808354040283529160200191611ecd565b820191906000526020600020905b815481529060010190602001808311611eb057829003601f168201915b505050505090806002018054600181600116156101000203166002900480601f016020809104026020016040519081016040528092919081815260200182805460018160011615610100020316600290048015611f6b5780601f10611f4057610100808354040283529160200191611f6b565b820191906000526020600020905b815481529060010190602001808311611f4e57829003601f168201915b5050505050905083565b6000611f808261387d565b611f8957600080fd5b611f9283613605565b15611f9c57600080fd5b6006600081548092919060010191905055506040518060600160405280600654815260200184815260200183815250600560006006548152602001908152602001600020600082015181600001556020820151816001019080519060200190612006929190613d6d565b506040820151816002019080519060200190612023929190613d6d565b50905050600061203284612a39565b9050600f6000828152602001908152602001600020600101600081548092919060010191905055507f3e5c1402f3f783dfa24900ba79b05df7226e3dd38535573b492a741ef1e23d52600654858560405161208f93929190614118565b60405180910390a15092915050565b6007602052806000526040600020600091509050806000015490806001018054600181600116156101000203166002900480601f0160208091040260200160405190810160405280929190818152602001828054600181600116156101000203166002900480156121505780601f1061212557610100808354040283529160200191612150565b820191906000526020600020905b81548152906001019060200180831161213357829003601f168201915b505050505090806002018054600181600116156101000203166002900480601f0160208091040260200160405190810160405280929190818152602001828054600181600116156101000203166002900480156121ee5780601f106121c3576101008083540402835291602001916121ee565b820191906000526020600020905b8154815290600101906020018083116121d157829003601f168201915b5050505050905083565b60125481565b6000601254905090565b60045481565b6000612219826139b9565b61222257600080fd5b61222b83613741565b1561223557600080fd5b600460008154809291906001019190505550604051806060016040528060045481526020018481526020018381525060036000600454815260200190815260200160002060008201518160000155602082015181600101908051906020019061229f929190613d6d565b5060408201518160020190805190602001906122bc929190613d6d565b5090505060006122cb846114b3565b9050600d6000828152602001908152602001600020600101600081548092919060010191905055507f837427a00628a65bb7a2cde8b1ffb450ee7410414a600b6358e3d6fa7479bb15600254858560405161232893929190614118565b60405180910390a15092915050565b6000606060105483111561234a57600080fd5b600f600084815260200190815260200160002060010154600f6000858152602001908152602001600020600001808054600181600116156101000203166002900480601f01602080910402602001604051908101604052809291908181526020018280546001816001161561010002031660029004801561240c5780601f106123e15761010080835404028352916020019161240c565b820191906000526020600020905b8154815290600101906020018083116123ef57829003601f168201915b5050505050905091509150915091565b600c5481565b6013602052806000526040600020600091509050806000018054600181600116156101000203166002900480601f0160208091040260200160405190810160405280929190818152602001828054600181600116156101000203166002900480156124ce5780601f106124a3576101008083540402835291602001916124ce565b820191906000526020600020905b8154815290600101906020018083116124b157829003601f168201915b5050505050908060010154905082565b60105481565b600b602052806000526040600020600091509050806000018054600181600116156101000203166002900480601f0160208091040260200160405190810160405280929190818152602001828054600181600116156101000203166002900480156125905780601f1061256557610100808354040283529160200191612590565b820191906000526020600020905b81548152906001019060200180831161257357829003601f168201915b5050505050908060010154905082565b60006125ab82613af5565b6125b457600080fd5b6125bd83612fd9565b156125c757600080fd5b6002600081548092919060010191905055506040518060600160405280600254815260200184815260200183815250600160006002548152602001908152602001600020600082015181600001556020820151816001019080519060200190612631929190613d6d565b50604082015181600201908051906020019061264e929190613d6d565b50905050600061265d84610da4565b9050600b6000828152602001908152602001600020600101600081548092919060010191905055507f04ce6c8553da7e6fcdda8f9da31b967b204da99235747590840f42959931340c60025485856040516126ba93929190614118565b60405180910390a15092915050565b600d602052806000526040600020600091509050806000018054600181600116156101000203166002900480601f0160208091040260200160405190810160405280929190818152602001828054600181600116156101000203166002900480156127755780601f1061274a57610100808354040283529160200191612775565b820191906000526020600020905b81548152906001019060200180831161275857829003601f168201915b5050505050908060010154905082565b6015602052806000526040600020600091509050806000015490806001018054600181600116156101000203166002900480601f0160208091040260200160405190810160405280929190818152602001828054600181600116156101000203166002900480156128375780601f1061280c57610100808354040283529160200191612837565b820191906000526020600020905b81548152906001019060200180831161281a57829003601f168201915b505050505090806002018054600181600116156101000203166002900480601f0160208091040260200160405190810160405280929190818152602001828054600181600116156101000203166002900480156128d55780601f106128aa576101008083540402835291602001916128d5565b820191906000526020600020905b8154815290600101906020018083116128b857829003601f168201915b5050505050905083565b6011602052806000526040600020600091509050806000018054600181600116156101000203166002900480601f01602080910402602001604051908101604052809291908181526020018280546001816001161561010002031660029004801561298b5780601f106129605761010080835404028352916020019161298b565b820191906000526020600020905b81548152906001019060200180831161296e57829003601f168201915b5050505050908060010154905082565b60008054600181600116156101000203166002900480601f016020809104026020016040519081016040528092919081815260200182805460018160011615610100020316600290048015612a315780601f10612a0657610100808354040283529160200191612a31565b820191906000526020600020905b815481529060010190602001808311612a1457829003601f168201915b505050505081565b600080600190505b6010548111612b69576060600f60008381526020019081526020016000206000018054600181600116156101000203166002900480601f016020809104026020016040519081016040528092919081815260200182805460018160011615610100020316600290048015612af65780601f10612acb57610100808354040283529160200191612af6565b820191906000526020600020905b815481529060010190602001808311612ad957829003601f168201915b5050505050905083604051602001612b0e9190614012565b6040516020818303038152906040528051906020012081604051602001612b359190614012565b604051602081830303815290604052805190602001201415612b5b578192505050612b6b565b508080600101915050612a41565b505b919050565b600080600190505b6012548111612ca0576060601160008381526020019081526020016000206000018054600181600116156101000203166002900480601f016020809104026020016040519081016040528092919081815260200182805460018160011615610100020316600290048015612c2d5780601f10612c0257610100808354040283529160200191612c2d565b820191906000526020600020905b815481529060010190602001808311612c1057829003601f168201915b5050505050905083604051602001612c459190614012565b6040516020818303038152906040528051906020012081604051602001612c6c9190614012565b604051602081830303815290604052805190602001201415612c92578192505050612ca2565b508080600101915050612b78565b505b919050565b6000612cb282613c31565b612cbb57600080fd5b612cc48361338d565b15612cce57600080fd5b6008600081548092919060010191905055506040518060600160405280600854815260200184815260200183815250600760006008548152602001908152602001600020600082015181600001556020820151816001019080519060200190612d38929190613d6d565b506040820151816002019080519060200190612d55929190613d6d565b509050506000612d6484612b70565b905060116000828152602001908152602001600020600101600081548092919060010191905055507f834d25dce92f6633c93c8f58711440ab8831c0990d6da90d28b18a51e525cbac6008548585604051612dc193929190614118565b60405180910390a15092915050565b600080600190505b6014548111612f00576060601360008381526020019081526020016000206000018054600181600116156101000203166002900480601f016020809104026020016040519081016040528092919081815260200182805460018160011615610100020316600290048015612e8d5780601f10612e6257610100808354040283529160200191612e8d565b820191906000526020600020905b815481529060010190602001808311612e7057829003601f168201915b5050505050905083604051602001612ea59190614012565b6040516020818303038152906040528051906020012081604051602001612ecc9190614012565b604051602081830303815290604052805190602001201415612ef2578192505050612f02565b508080600101915050612dd8565b505b919050565b60085481565b600f602052806000526040600020600091509050806000018054600181600116156101000203166002900480601f016020809104026020016040519081016040528092919081815260200182805460018160011615610100020316600290048015612fb95780601f10612f8e57610100808354040283529160200191612fb9565b820191906000526020600020905b815481529060010190602001808311612f9c57829003601f168201915b5050505050908060010154905082565b6000601054905090565b60065481565b600080600190505b600c54811161310a576060600b60008381526020019081526020016000206000018054600181600116156101000203166002900480601f0160208091040260200160405190810160405280929190818152602001828054600181600116156101000203166002900480156130965780601f1061306b57610100808354040283529160200191613096565b820191906000526020600020905b81548152906001019060200180831161307957829003601f168201915b50505050509050836040516020016130ae9190614012565b60405160208183030381529060405280519060200120816040516020016130d59190614012565b6040516020818303038152906040528051906020012014156130fc57600092505050613110565b508080600101915050612fe1565b50600190505b919050565b600080600190505b600a548111613246576060600960008381526020019081526020016000206002018054600181600116156101000203166002900480601f0160208091040260200160405190810160405280929190818152602001828054600181600116156101000203166002900480156131d25780601f106131a7576101008083540402835291602001916131d2565b820191906000526020600020905b8154815290600101906020018083116131b557829003601f168201915b50505050509050836040516020016131ea9190614012565b60405160208183030381529060405280519060200120816040516020016132119190614012565b6040516020818303038152906040528051906020012014156132385760009250505061324c565b50808060010191505061311d565b50600190505b919050565b600080600190505b6014548111613382576060601360008381526020019081526020016000206000018054600181600116156101000203166002900480601f01602080910402602001604051908101604052809291908181526020018280546001816001161561010002031660029004801561330e5780601f106132e35761010080835404028352916020019161330e565b820191906000526020600020905b8154815290600101906020018083116132f157829003601f168201915b50505050509050836040516020016133269190614012565b604051602081830303815290604052805190602001208160405160200161334d9190614012565b60405160208183030381529060405280519060200120141561337457600092505050613388565b508080600101915050613259565b50600190505b919050565b600080600190505b60125481116134be576060601160008381526020019081526020016000206000018054600181600116156101000203166002900480601f01602080910402602001604051908101604052809291908181526020018280546001816001161561010002031660029004801561344a5780601f1061341f5761010080835404028352916020019161344a565b820191906000526020600020905b81548152906001019060200180831161342d57829003601f168201915b50505050509050836040516020016134629190614012565b60405160208183030381529060405280519060200120816040516020016134899190614012565b6040516020818303038152906040528051906020012014156134b0576000925050506134c4565b508080600101915050613395565b50600190505b919050565b600080600190505b60165481116135fa576060601560008381526020019081526020016000206001018054600181600116156101000203166002900480601f0160208091040260200160405190810160405280929190818152602001828054600181600116156101000203166002900480156135865780601f1061355b57610100808354040283529160200191613586565b820191906000526020600020905b81548152906001019060200180831161356957829003601f168201915b505050505090508360405160200161359e9190614012565b60405160208183030381529060405280519060200120816040516020016135c59190614012565b6040516020818303038152906040528051906020012014156135ec57600092505050613600565b5080806001019150506134d1565b50600190505b919050565b600080600190505b6010548111613736576060600f60008381526020019081526020016000206000018054600181600116156101000203166002900480601f0160208091040260200160405190810160405280929190818152602001828054600181600116156101000203166002900480156136c25780601f10613697576101008083540402835291602001916136c2565b820191906000526020600020905b8154815290600101906020018083116136a557829003601f168201915b50505050509050836040516020016136da9190614012565b60405160208183030381529060405280519060200120816040516020016137019190614012565b6040516020818303038152906040528051906020012014156137285760009250505061373c565b50808060010191505061360d565b50600190505b919050565b600080600190505b600e548111613872576060600d60008381526020019081526020016000206000018054600181600116156101000203166002900480601f0160208091040260200160405190810160405280929190818152602001828054600181600116156101000203166002900480156137fe5780601f106137d3576101008083540402835291602001916137fe565b820191906000526020600020905b8154815290600101906020018083116137e157829003601f168201915b50505050509050836040516020016138169190614012565b604051602081830303815290604052805190602001208160405160200161383d9190614012565b60405160208183030381529060405280519060200120141561386457600092505050613878565b508080600101915050613749565b50600190505b919050565b600080600190505b60065481116139ae576060600560008381526020019081526020016000206002018054600181600116156101000203166002900480601f01602080910402602001604051908101604052809291908181526020018280546001816001161561010002031660029004801561393a5780601f1061390f5761010080835404028352916020019161393a565b820191906000526020600020905b81548152906001019060200180831161391d57829003601f168201915b50505050509050836040516020016139529190614012565b60405160208183030381529060405280519060200120816040516020016139799190614012565b6040516020818303038152906040528051906020012014156139a0576000925050506139b4565b508080600101915050613885565b50600190505b919050565b600080600190505b6004548111613aea576060600360008381526020019081526020016000206002018054600181600116156101000203166002900480601f016020809104026020016040519081016040528092919081815260200182805460018160011615610100020316600290048015613a765780601f10613a4b57610100808354040283529160200191613a76565b820191906000526020600020905b815481529060010190602001808311613a5957829003601f168201915b5050505050905083604051602001613a8e9190614012565b6040516020818303038152906040528051906020012081604051602001613ab59190614012565b604051602081830303815290604052805190602001201415613adc57600092505050613af0565b5080806001019150506139c1565b50600190505b919050565b600080600190505b6002548111613c26576060600160008381526020019081526020016000206002018054600181600116156101000203166002900480601f016020809104026020016040519081016040528092919081815260200182805460018160011615610100020316600290048015613bb25780601f10613b8757610100808354040283529160200191613bb2565b820191906000526020600020905b815481529060010190602001808311613b9557829003601f168201915b5050505050905083604051602001613bca9190614012565b6040516020818303038152906040528051906020012081604051602001613bf19190614012565b604051602081830303815290604052805190602001201415613c1857600092505050613c2c565b508080600101915050613afd565b50600190505b919050565b600080600190505b6008548111613d62576060600760008381526020019081526020016000206002018054600181600116156101000203166002900480601f016020809104026020016040519081016040528092919081815260200182805460018160011615610100020316600290048015613cee5780601f10613cc357610100808354040283529160200191613cee565b820191906000526020600020905b815481529060010190602001808311613cd157829003601f168201915b5050505050905083604051602001613d069190614012565b6040516020818303038152906040528051906020012081604051602001613d2d9190614012565b604051602081830303815290604052805190602001201415613d5457600092505050613d68565b508080600101915050613c39565b50600190505b919050565b828054600181600116156101000203166002900490600052602060002090601f016020900481019282601f10613dae57805160ff1916838001178555613ddc565b82800160010185558215613ddc579182015b82811115613ddb578251825591602001919060010190613dc0565b5b509050613de99190613ded565b5090565b613e0f91905b80821115613e0b576000816000905550600101613df3565b5090565b90565b600082601f830112613e2357600080fd5b8135613e36613e31826141cf565b6141a2565b91508082526020830160208301858383011115613e5257600080fd5b613e5d838284614249565b50505092915050565b600081359050613e758161429c565b92915050565b600060208284031215613e8d57600080fd5b600082013567ffffffffffffffff811115613ea757600080fd5b613eb384828501613e12565b91505092915050565b60008060408385031215613ecf57600080fd5b600083013567ffffffffffffffff811115613ee957600080fd5b613ef585828601613e12565b925050602083013567ffffffffffffffff811115613f1257600080fd5b613f1e85828601613e12565b9150509250929050565b600060208284031215613f3a57600080fd5b6000613f4884828501613e66565b91505092915050565b613f5a81614237565b82525050565b6000613f6b82614206565b613f758185614211565b9350613f85818560208601614258565b613f8e8161428b565b840191505092915050565b6000613fa482614206565b613fae8185614222565b9350613fbe818560208601614258565b80840191505092915050565b6000613fd5826141fb565b613fdf8185614211565b9350613fef818560208601614258565b613ff88161428b565b840191505092915050565b61400c8161422d565b82525050565b600061401e8284613f99565b915081905092915050565b600060208201905081810360008301526140438184613fca565b905092915050565b600060208201905081810360008301526140658184613f60565b905092915050565b600060408201905081810360008301526140878185613f60565b90506140966020830184613f51565b9392505050565b600060408201905081810360008301526140b78185613fca565b90506140c66020830184614003565b9392505050565b60006020820190506140e26000830184614003565b92915050565b60006040820190506140fd6000830185614003565b818103602083015261410f8184613f60565b90509392505050565b600060608201905061412d6000830186614003565b818103602083015261413f8185613f60565b905081810360408301526141538184613f60565b9050949350505050565b60006060820190506141726000830186614003565b81810360208301526141848185613fca565b905081810360408301526141988184613fca565b9050949350505050565b6000604051905081810181811067ffffffffffffffff821117156141c557600080fd5b8060405250919050565b600067ffffffffffffffff8211156141e657600080fd5b601f19601f8301169050602081019050919050565b600081519050919050565b600081519050919050565b600082825260208201905092915050565b600081905092915050565b6000819050919050565b60006142428261422d565b9050919050565b82818337600083830152505050565b60005b8381101561427657808201518184015260208101905061425b565b83811115614285576000848401525b50505050565b6000601f19601f8301169050919050565b6142a58161422d565b81146142b057600080fd5b5056fea365627a7a723158201f3bc86b993b9954b304e2219f52dfc65e85ee7a602b126c876a1fea7109710b6c6578706572696d656e74616cf564736f6c63430005100040",
  "source": "pragma solidity >=0.4.21 <0.7.0;\npragma experimental ABIEncoderV2;\nimport \"./VoteLibrary.sol\";\n\ncontract VoteTracker\n{\n    string public secret = \"123456\";\n\n    mapping(uint => VoteLibrary.Vote) public VoteStore;\n    uint256 public voterCount = 0;\n\n    mapping(uint => VoteLibrary.Vote1) public VoteStore1;\n    uint256 public voterCount1 = 0;\n\n    mapping(uint => VoteLibrary.Vote2) public VoteStore2;\n    uint256 public voterCount2 = 0;\n\n    mapping(uint => VoteLibrary.Vote3) public VoteStore3;\n    uint256 public voterCount3 = 0;\n    \n    mapping(uint => VoteLibrary.Vote4) public VoteStore4;\n    uint256 public voterCount4 = 0;\n\n    mapping(uint => VoteLibrary.Party) public PartyStore;\n    uint256 public partyCount = 0;\n\n    mapping(uint => VoteLibrary.Party1) public PartyStore1;\n    uint256 public partyCount1 = 0;\n\n    mapping(uint => VoteLibrary.Party2) public PartyStore2;\n    uint256 public partyCount2 = 0;\n\n    mapping(uint => VoteLibrary.Party3) public PartyStore3;\n    uint256 public partyCount3 = 0;\n\n    mapping(uint => VoteLibrary.Party4) public PartyStore4;\n    uint256 public partyCount4 = 0;\n\n    mapping(uint => VoteLibrary.Identity) public IdentityStore;\n    uint256 public identityCount = 0;\n   \n\n    function registerUser(string memory _adhaarNumber, string memory _email) public returns(uint256)\n    {\n       // require(checkIfAccCanExist(_add));\n        require(checkIfIdCanExist(_adhaarNumber));\n        identityCount++;\n      \n        IdentityStore[identityCount] = VoteLibrary.Identity(identityCount,_adhaarNumber,_email);\n        emit IdentityCreate(identityCount,_adhaarNumber,_email);\n        \n    }\n    function getidcount() public returns(uint256){\n        return identityCount;\n    }\n\n    function generateVote(string memory _partyName, string memory _adhaar) public returns(uint256)\n    {\n       // require(!checkIfAccCanExist(_adder));\n        //require(!checkIfIdCanExist(_adhaar));\n        require(checkIfCanVote(_adhaar));\n        require(!checkIfCanExist(_partyName));\n        voterCount++;\n        VoteStore[voterCount] = VoteLibrary.Vote(voterCount, _partyName, _adhaar);\n        uint partyIndex = getParty(_partyName);\n        PartyStore[partyIndex].voteCount++;\n        emit VoteGenerate(voterCount, _partyName, _adhaar);\n        \n    }\n    function generateVoteA(string memory _partyName1, string memory _adhaarA) public returns(uint256)\n    {\n       // require(!checkIfAccCanExist(_adder));\n       // require(!checkIfIdCanExist(_adhaarA));\n        require(checkIfCanVoteA(_adhaarA));\n        require(!checkIfCanExistA(_partyName1));\n        voterCount1++;\n        VoteStore1[voterCount1] = VoteLibrary.Vote1(voterCount1, _partyName1, _adhaarA);\n        uint partyIndex1 = getPartyA(_partyName1);\n        PartyStore1[partyIndex1].voteCount1++;\n        emit VoteGenerateA(voterCount, _partyName1, _adhaarA);\n        \n    }\n    function generateVoteB(string memory _partyName2, string memory _adhaarB) public returns(uint256)\n    {\n       // require(!checkIfAccCanExist(_adder));\n       // require(!checkIfIdCanExist(_adhaarB));\n        require(checkIfCanVoteB(_adhaarB));\n        require(!checkIfCanExistB(_partyName2));\n        voterCount2++;\n        VoteStore2[voterCount2] = VoteLibrary.Vote2(voterCount2, _partyName2, _adhaarB);\n        uint partyIndex2 = getPartyB(_partyName2);\n        PartyStore2[partyIndex2].voteCount2++;\n        emit VoteGenerateB(voterCount2, _partyName2, _adhaarB);\n        \n    }\n    function generateVoteC(string memory _partyName3, string memory _adhaarC) public returns(uint256)\n    {\n       // require(!checkIfAccCanExist(_adder));\n       // require(!checkIfIdCanExist(_adhaarC));\n        require(checkIfCanVoteC(_adhaarC));\n        require(!checkIfCanExistC(_partyName3));\n        voterCount3++;\n        VoteStore3[voterCount3] = VoteLibrary.Vote3(voterCount3, _partyName3, _adhaarC);\n        uint partyIndex3 = getPartyC(_partyName3);\n        PartyStore3[partyIndex3].voteCount3++;\n        emit VoteGenerateC(voterCount3, _partyName3, _adhaarC);\n        \n    }\n    function generateVoteD(string memory _partyName4, string memory _adhaarD) public returns(uint256)\n    {\n       // require(!checkIfAccCanExist(_adder));\n       // require(!checkIfIdCanExist(_adhaarD));\n        require(checkIfCanVoteD(_adhaarD));\n        require(!checkIfCanExistD(_partyName4));\n        voterCount4++;\n        VoteStore4[voterCount4] = VoteLibrary.Vote4(voterCount4, _partyName4, _adhaarD);\n        uint partyIndex4 = getPartyD(_partyName4);\n        PartyStore4[partyIndex4].voteCount4++;\n        emit VoteGenerateD(voterCount4, _partyName4, _adhaarD);\n        \n    }\n\n    /*function getvotecount() public returns(uint256)\n    {\n    return voterCount;\n\n    }*/\n    \n    \n    function createParty(string memory _name) public returns(uint256)\n    {\n        require(checkIfCanExist(_name));\n        partyCount++;\n        PartyStore[partyCount] = VoteLibrary.Party(_name, 0);\n        emit PartyCreate(_name, 0);\n    }\n    function createPartyA(string memory _name1) public returns(uint256)\n    {\n        require(checkIfCanExistA(_name1));\n        partyCount1++;\n        PartyStore1[partyCount1] = VoteLibrary.Party1(_name1, 0);\n        emit PartyCreateA(_name1, 0);\n    }\n    function createPartyB(string memory _name2) public returns(uint256)\n    {\n        require(checkIfCanExistB(_name2));\n        partyCount2++;\n        PartyStore2[partyCount2] = VoteLibrary.Party2(_name2, 0);\n        emit PartyCreateB(_name2, 0);\n    }\n    function createPartyC(string memory _name3) public returns(uint256)\n    {\n        require(checkIfCanExistC(_name3));\n        partyCount3++;\n        PartyStore3[partyCount3] = VoteLibrary.Party3(_name3, 0);\n        emit PartyCreateC(_name3, 0);\n    }\n    function createPartyD(string memory _name4) public returns(uint256)\n    {\n        require(checkIfCanExistD(_name4));\n        partyCount4++;\n        PartyStore4[partyCount4] = VoteLibrary.Party4(_name4, 0);\n        emit PartyCreateD(_name4, 0);\n    }\n\n    function getAdminKey() public returns(string memory)\n    {\n        return secret;\n    }\n\n    function checkIfCanExist(string memory _namer) private returns(bool)\n    {\n        for(uint i=1;i<=partyCount;i++)\n        {\n            string memory partyNamed = PartyStore[i].name;\n            if(keccak256(abi.encodePacked((partyNamed))) == keccak256(abi.encodePacked((_namer))))\n            {\n                return false;\n            }\n        }\n        return true;\n    }\n    function checkIfCanExistA(string memory _namerA) private returns(bool)\n    {\n        for(uint i=1;i<=partyCount1;i++)\n        {\n            string memory partyNamedA = PartyStore1[i].name1;\n            if(keccak256(abi.encodePacked((partyNamedA))) == keccak256(abi.encodePacked((_namerA))))\n            {\n                return false;\n            }\n        }\n        return true;\n    }\n    function checkIfCanExistB(string memory _namerB) private returns(bool)\n    {\n        for(uint i=1;i<=partyCount2;i++)\n        {\n            string memory partyNamedB = PartyStore2[i].name2;\n            if(keccak256(abi.encodePacked((partyNamedB))) == keccak256(abi.encodePacked((_namerB))))\n            {\n                return false;\n            }\n        }\n        return true;\n    }\n    function checkIfCanExistC(string memory _namerC) private returns(bool)\n    {\n        for(uint i=1;i<=partyCount3;i++)\n        {\n            string memory partyNamedC = PartyStore3[i].name3;\n            if(keccak256(abi.encodePacked((partyNamedC))) == keccak256(abi.encodePacked((_namerC))))\n            {\n                return false;\n            }\n        }\n        return true;\n    }\n    function checkIfCanExistD(string memory _namerD) private returns(bool)\n    {\n        for(uint i=1;i<=partyCount4;i++)\n        {\n            string memory partyNamedD = PartyStore4[i].name4;\n            if(keccak256(abi.encodePacked((partyNamedD))) == keccak256(abi.encodePacked((_namerD))))\n            {\n                return false;\n            }\n        }\n        return true;\n    }\n\n    function checkIfIdCanExist(string memory _namered) private returns(bool)\n    {\n        for(uint i=1;i<=identityCount;i++)\n        {\n            string memory idNamed = IdentityStore[i].adhaarNumber;\n            if(keccak256(abi.encodePacked((idNamed))) == keccak256(abi.encodePacked((_namered))))\n            {\n                return false;\n            }\n        }\n        return true;\n    }\n\n    /**function checkIfAccCanExist(string memory _namerer) private returns(bool)\n    {\n        for(uint i=1;i<=identityCount;i++)\n        {\n            string memory idNamed = IdentityStore[i].add;\n            if(keccak256(abi.encodePacked((idNamed))) == keccak256(abi.encodePacked((_namerer))))\n            {\n                return false;\n            }\n        }\n        return true;\n    }*/\n\n    function checkIfCanVote(string memory _adhaarer) private returns(bool)\n    {\n        for(uint i=1;i<=voterCount;i++)\n        {\n            string memory voteNamed = VoteStore[i].adhaar;\n            if(keccak256(abi.encodePacked((voteNamed))) == keccak256(abi.encodePacked((_adhaarer))))\n            {\n                return false;\n            }\n        }\n        return true;\n    }\n     function checkIfCanVoteA(string memory _adhaarerA) private returns(bool)\n    {\n        for(uint i=1;i<=voterCount1;i++)\n        {\n            string memory voteNamedA = VoteStore1[i].adhaarA;\n            if(keccak256(abi.encodePacked((voteNamedA))) == keccak256(abi.encodePacked((_adhaarerA))))\n            {\n                return false;\n            }\n        }\n        return true;\n    }\n     function checkIfCanVoteB(string memory _adhaarerB) private returns(bool)\n    {\n        for(uint i=1;i<=voterCount2;i++)\n        {\n            string memory voteNamedB = VoteStore2[i].adhaarB;\n            if(keccak256(abi.encodePacked((voteNamedB))) == keccak256(abi.encodePacked((_adhaarerB))))\n            {\n                return false;\n            }\n        }\n        return true;\n    }\n     function checkIfCanVoteC(string memory _adhaarerC) private returns(bool)\n    {\n        for(uint i=1;i<=voterCount3;i++)\n        {\n            string memory voteNamedC = VoteStore3[i].adhaarC;\n            if(keccak256(abi.encodePacked((voteNamedC))) == keccak256(abi.encodePacked((_adhaarerC))))\n            {\n                return false;\n            }\n        }\n        return true;\n    }\n     function checkIfCanVoteD(string memory _adhaarerD) private returns(bool)\n    {\n        for(uint i=1;i<=voterCount4;i++)\n        {\n            string memory voteNamedD = VoteStore4[i].adhaarD;\n            if(keccak256(abi.encodePacked((voteNamedD))) == keccak256(abi.encodePacked((_adhaarerD))))\n            {\n                return false;\n            }\n        }\n        return true;\n    }\n\n    function getParty(string memory _partyNamer) public returns (uint)\n    {\n        for(uint i=1;i<=partyCount;i++)\n        {\n            string memory partyNamed = PartyStore[i].name;\n            if(keccak256(abi.encodePacked((partyNamed))) == keccak256(abi.encodePacked((_partyNamer))))\n            {\n                return i;\n            }\n        }\n    }\n    function getPartyA(string memory _partyNamerA) public returns (uint)\n    {\n        for(uint i=1;i<=partyCount1;i++)\n        {\n            string memory partyNamedA = PartyStore1[i].name1;\n            if(keccak256(abi.encodePacked((partyNamedA))) == keccak256(abi.encodePacked((_partyNamerA))))\n            {\n                return i;\n            }\n        }\n    }\n    function getPartyB(string memory _partyNamerB) public returns (uint)\n    {\n        for(uint i=1;i<=partyCount2;i++)\n        {\n            string memory partyNamedB = PartyStore2[i].name2;\n            if(keccak256(abi.encodePacked((partyNamedB))) == keccak256(abi.encodePacked((_partyNamerB))))\n            {\n                return i;\n            }\n        }\n    }\n    function getPartyC(string memory _partyNamerC) public returns (uint)\n    {\n        for(uint i=1;i<=partyCount3;i++)\n        {\n            string memory partyNamedC = PartyStore3[i].name3;\n            if(keccak256(abi.encodePacked((partyNamedC))) == keccak256(abi.encodePacked((_partyNamerC))))\n            {\n                return i;\n            }\n        }\n    }\n    function getPartyD(string memory _partyNamerD) public returns (uint)\n    {\n        for(uint i=1;i<=partyCount4;i++)\n        {\n            string memory partyNamedD = PartyStore4[i].name4;\n            if(keccak256(abi.encodePacked((partyNamedD))) == keccak256(abi.encodePacked((_partyNamerD))))\n            {\n                return i;\n            }\n        }\n    }\n    function getemail(string memory _adm) public returns(string memory)\n    {\n        for(uint i=1;i<=identityCount;i++)\n        {\n        string memory admnum = IdentityStore[i].adhaarNumber;\n        if(keccak256(abi.encodePacked((admnum))) == keccak256(abi.encodePacked((_adm))))\n        {\n         return IdentityStore[i].email;\n        }\n    }\n}\n\n    function getPartyCount() public returns (uint)\n    {\n        return partyCount;\n    }\n    function getPartyCountA() public returns (uint)\n    {\n        return partyCount1;\n    }\n    function getPartyCountB() public returns (uint)\n    {\n        return partyCount2;\n    }\n    function getPartyCountC() public returns (uint)\n    {\n        return partyCount3;\n    }\n    function getPartyCountD() public returns (uint)\n    {\n        return partyCount4;\n    }\n    function getNames(uint _id) public returns(uint,string memory)\n    {\n        require(_id<=partyCount);\n        return (PartyStore[_id].voteCount,PartyStore[_id].name);\n    }\n    function getNamesA(uint _id1) public returns(uint,string memory)\n    {\n        require(_id1<=partyCount1);\n        return (PartyStore1[_id1].voteCount1,PartyStore1[_id1].name1);\n    }\n    function getNamesB(uint _id2) public returns(uint,string memory)\n    {\n        require(_id2<=partyCount2);\n        return (PartyStore2[_id2].voteCount2,PartyStore2[_id2].name2);\n    }\n    function getNamesC(uint _id3) public returns(uint,string memory)\n    {\n        require(_id3<=partyCount3);\n        return (PartyStore3[_id3].voteCount3,PartyStore3[_id3].name3);\n    }\n    function getNamesD(uint _id4) public returns(uint,string memory)\n    {\n        require(_id4<=partyCount4);\n        return (PartyStore4[_id4].voteCount4,PartyStore4[_id4].name4);\n    }\n\n    event IdentityCreate(uint add, string adhaarNumber, string email);\n    event PartyCreate(string name, uint voteCount);\n    event PartyCreateA(string name1, uint voteCount1);\n    event PartyCreateB(string name2, uint voteCount2);\n    event PartyCreateC(string name3, uint voteCount3);\n    event PartyCreateD(string name4, uint voteCount4);\n    event VoteGenerate(uint voteCount, string partyName, string adhaar);\n    event VoteGenerateA(uint voteCount1, string partyName1, string adhaarA);\n    event VoteGenerateB(uint voteCount2, string partyName2, string adhaarB);\n    event VoteGenerateC(uint voteCount3, string partyName3, string adhaarC);\n    event VoteGenerateD(uint voteCount4, string partyName4, string adhaarD);\n}",
  "sourcePath": "C:\\Users\\MIDHUN\\Desktop\\E-Voting-dApp-master\\E-Voting-dApp-master\\contracts\\VoteTracker.sol",
  "compiler": {
    "name": "solc",
    "version": "0.5.16+commit.9c3226ce.Emscripten.clang"
  },
  "schemaVersion": "3.4.6",
  "updatedAt": "2022-04-16T13:43:19.039Z",
  "networkType": "ethereum",
  "devdoc": {
    "methods": {}
  },
  "userdoc": {
    "methods": {}
  }
}